:100000000C9432000C9486000C94AF000C94D80031
:100010000C9402030C94D9020C9435020C945E02E9
:100020000C9487020C94B0020C940C020C94E30123
:100030000C944F000C944F000C944F000C944F0004
:100040000C944F000C944F000C944F000C944F00F4
:100050000C944F0079015E01600162016701690142
:100060006E01700111241FBECFE5D8E0DEBFCDBF09
:1000700010E0A0E6B0E0E6E6F6E002C005900D92E2
:10008000A036B107D9F720E0A0E6B0E001C01D928C
:10009000A537B207E1F70E946C000C9431030C9471
:1000A00000008091600081110CC041E060E081E0BF
:1000B0000E940D0180EC0E94B60181E080936000F7
:1000C000089540E060E081E00E940D0180E40E941C
:1000D000B6011092600008956FEF81E00E94FD006C
:1000E0000E94840060E080E00E94B80161E570E059
:1000F00080E00E94D40140E062E080E00E94510173
:1001000080E40E94B601FFCF789408951F920F9269
:100110000FB60F9211242F933F934F935F936F93DA
:100120007F938F939F93AF93BF93EF93FF93E09150
:100130006300F0916400309709F00995FF91EF9109
:10014000BF91AF919F918F917F916F915F914F91EF
:100150003F912F910F900FBE0F901F9018951F92F7
:100160000F920FB60F9211242F933F934F935F93EB
:100170006F937F938F939F93AF93BF93EF93FF936F
:10018000E0916100F0916200309709F00995FF91CC
:10019000EF91BF91AF919F918F917F916F915F91FF
:1001A0004F913F912F910F900FBE0F901F90189578
:1001B0001F920F920FB60F9211242F933F934F93DC
:1001C0005F936F937F938F939F93AF93BF93EF93BF
:1001D000FF93E0E0F0E00995FF91EF91BF91AF91BF
:1001E0009F918F917F916F915F914F913F912F914F
:1001F0000F900FBE0F901F901895813041F028F09E
:10020000823039F0833039F008956ABB089567BBB6
:10021000089564BB089561BB08958130A9F028F06A
:10022000823009F1833071F108952BB381E090E0C1
:1002300001C0880F6A95EAF7413011F4822B02C0A1
:10024000809582238BBB089528B381E090E001C0A4
:10025000880F6A95EAF7413011F4822B02C080952D
:10026000822388BB089525B381E090E001C0880F08
:100270006A95EAF7413011F4822B02C080958223FF
:1002800085BB089522B381E090E001C0880F6A9594
:10029000EAF7413011F4822B02C08095822382BBA1
:1002A00008950F931F93062F10E00830110500F5F5
:1002B000F801E65DFF4F93B70C942B0391601AC0D1
:1002C0009E7F01C0916093BF93B7926016C09E7FDE
:1002D00001C0916093BF93B79D7F06C09E7F01C010
:1002E000916093BF93B7926093BF93B7946008C037
:1002F00093B79E7F93BF93B79D7F93BF93B79B7F29
:1003000093BF413059F038F0423071F0433091F4EE
:1003100093B790610BC093B79F7E02C093B7906173
:1003200093BF93B79F7D05C093B79F7E93BF93B74D
:10033000906293BF813041F080F0823041F0833091
:1003400061F483B7806405C083B7806408C083B755
:100350008F7B83BF83B7886005C083B78F7B83BFE4
:1003600083B7877F83BF1F910F91089582BF089540
:10037000882319F0813061F00895662319F0613007
:1003800021F0089589B781600DC089B78E7F0AC0BA
:10039000662319F0613021F0089589B7826002C0A8
:1003A00089B78D7F89BF0895882319F0813031F096
:1003B00008957093740060937300089570937200B1
:1003C0006093710008951F920F920FB60F9211243F
:1003D0002F933F934F935F936F937F938F939F934D
:1003E000AF93BF93EF93FF93E0917300F09174008C
:1003F000309709F00995FF91EF91BF91AF919F91CF
:100400008F917F916F915F914F913F912F910F90BD
:100410000FBE0F901F9018951F920F920FB60F925C
:1004200011242F933F934F935F936F937F938F93F9
:100430009F93AF93BF93EF93FF93E0917100F0917F
:100440007200309709F00995FF91EF91BF91AF913C
:100450009F918F917F916F915F914F913F912F91DC
:100460000F900FBE0F901F9018951F920F920FB60E
:100470000F9211242F933F934F935F936F937F932A
:100480008F939F93AF93BF93EF93FF93E091690096
:10049000F0916A00309709F00995FF91EF91BF91B3
:1004A000AF919F918F917F916F915F914F913F910C
:1004B0002F910F900FBE0F901F9018951F920F92C3
:1004C0000FB60F9211242F933F934F935F936F9327
:1004D0007F938F939F93AF93BF93EF93FF93E0919D
:1004E0006D00F0916E00309709F00995FF91EF9142
:1004F000BF91AF919F918F917F916F915F914F913C
:100500003F912F910F900FBE0F901F9018951F9243
:100510000F920FB60F9211242F933F934F935F9337
:100520006F937F938F939F93AF93BF93EF93FF93BB
:10053000E0916B00F0916C00309709F00995FF9104
:10054000EF91BF91AF919F918F917F916F915F914B
:100550004F913F912F910F900FBE0F901F901895C4
:100560001F920F920FB60F9211242F933F934F9328
:100570005F936F937F938F939F93AF93BF93EF930B
:10058000FF93E0916F00F0917000309709F00995AA
:10059000FF91EF91BF91AF919F918F917F916F915B
:1005A0005F914F913F912F910F900FBE0F901F9031
:1005B00018951F920F920FB60F9211242F933F930D
:1005C0004F935F936F937F938F939F93AF93BF935B
:1005D000EF93FF93E0916700F0916800309709F086
:1005E0000995FF91EF91BF91AF919F918F917F916D
:1005F0006F915F914F913F912F910F900FBE0F9090
:100600001F9018951F920F920FB60F9211242F93DF
:100610003F934F935F936F937F938F939F93AF938A
:10062000BF93EF93FF93E0916500F09166003097E0
:1006300009F00995FF91EF91BF91AF919F918F9133
:100640007F916F915F914F913F912F910F900FBECE
:100650000F901F901895EE0FFF1F0590F491E02D5D
:060660000994F894FFCF9D
:00000001FF
