S0140000427265616B696E506F696E742E737265634A
S11300000C942A000C9492020C94BB020C94E4020B
S11300100C947E040C9455040C94B1030C94DA03F0
S11300200C9403040C942C040C9488030C945F0328
S11300300C9447000C9447000C9447000C94470020
S11300400C9451020C9447000C9447000C94470004
S11300500C94470011241FBECFE5D8E0DEBFCDBF0E
S113006010E0A0E6B0E0E8E9F9E002C005900D92E6
S1130070A836B107D9F720E0A8E6B0E001C01D9288
S1130080A238B207E1F70E94F5010C94CA040C945B
S11300900000CF93C82F40E064E082E00E945D033B
S11300A040E065E082E00E945D03C4FB442740F920
S11300B060E082E00E945D03C5FB442740F961E0F3
S11300C082E00E945D03C6FB442740F962E082E0BF
S11300D00E945D034C2F441F4427441F63E082E0C9
S11300E00E945D0341E066E082E00E945D038FECC4
S11300F097E00197F1F700C0000040E066E082E07D
S11301000E945D038FEC97E00197F1F700C00000B7
S11301104C2F417060E082E00E945D03C1FB4427E4
S113012040F961E082E00E945D03C2FB442740F98C
S113013062E082E00E945D03C3FB442740F963E070
S113014082E00E945D0341E066E082E00E945D037C
S11301508FEC97E00197F1F700C0000040E066E003
S113016082E00E945D038FEC97E00197F1F700C0F5
S11301700000CF910895CF93C82F41E064E082E05E
S11301800E945D0340E065E082E00E945D03C4FBE1
S1130190442740F960E082E00E945D03C5FB4427E8
S11301A040F961E082E00E945D03C6FB442740F908
S11301B062E082E00E945D034C2F441F4427441FE9
S11301C063E082E00E945D0341E066E082E00E9419
S11301D05D038FEC97E00197F1F700C0000040E069
S11301E066E082E00E945D038FEC97E00197F1F7EF
S11301F000C000004C2F417060E082E00E945D036B
S1130200C1FB442740F961E082E00E945D03C2FB28
S1130210442740F962E082E00E945D03C3FB442767
S113022040F963E082E00E945D0341E066E082E021
S11302300E945D038FEC97E00197F1F700C0000086
S113024040E066E082E00E945D038FEC97E0019756
S1130250F1F700C00000CF9108952FE788E391E003
S1130260215080409040E1F700C0000082E00E94ED
S113027049008FEC97E00197F1F700C0000088E295
S11302800E9449008FEC97E00197F1F700C000004D
S11302908CE00E9449008FEC97E00197F1F700C0D1
S11302A0000086E00E9449008FE99FE00197F1F782
S11302B000C0000083E80E9449008FEC97E001979A
S11302C0F1F700C000000895811102C080E801C068
S11302D080EC860F0C944900CF92DF92FF920F932B
S11302E01F93CF93DF938C01F62EC42F642F8F2D91
S11302F00E946401D0E080E4F89EC00DD11D112459
S1130300F12C8F2D90E06801C80ED91EF6012081D2
S1130310222369F08C0F9D1F409719F480EC0E94F2
S11303204900F60180810E94BB00F394EACFDF917B
S1130330CF911F910F91FF90DF90CF900895EF928E
S1130340FF920F931F93CF93DF93EC0168EE73E05A
S11303500E94A7047C0180E3860F0E94BB0004E690
S113036010E0C701B8010E94A70480E3860F0E9431
S1130370BB00CE01B8010E94A7040AE010E0B80156
S11303800E94A70480E3860F0E94BB00CE01B8013F
S11303900E94A704805DDF91CF911F910F91FF9080
S11303A0EF900C94BB0080E00E947A0290936B0063
S11303B080936A0080E00E943702909369008093E2
S11303C0680060E081E00E94640180916A0090917D
S11303D06B000E949F0165E081E00E9464018091AE
S11303E06800909169000C949F010E9490026FEF45
S11303F082E00E94090360E080E00E9409030E94F9
S11304002D0140E060E080E690E00E946C0166E02F
S113041080E00E94210283ED91E00E944C0280E082
S11304200E94430280E00E947A0290936B008093C2
S11304306A0080E00E94370290936900809368000C
S1130440F1CF813041F028F0823039F43E9A3F9A5E
S113045004C03E9A01C03E983F9886B1887F86B911
S113046086B16770682B66B93D98379A089597B13D
S1130470907E97B997B1892B87B9369A3699FECF72
S113048084B195B10895882319F0813019F0089545
S1130490339A08953398089590936D0080936C0077
S11304A008951F920F920FB60F9211242F933F932A
S11304B04F935F936F937F938F939F93AF93BF9368
S11304C0EF93FF93E0916C00F0916D00309709F089
S11304D00995FF91EF91BF91AF919F918F917F917A
S11304E06F915F914F913F912F910F900FBE0F909D
S11304F01F9018950E9437029C01A8E8B3E10E945E
S1130500BB04DC01CB012AE0B695A79597958795A6
S11305102A95D1F76AE070E00E94A704CB01089500
S1130520789408951F920F920FB60F9211242F936F
S11305303F934F935F936F937F938F939F93AF9367
S1130540BF93EF93FF93E0917000F09171003097A7
S113055009F00995FF91EF91BF91AF919F918F9110
S11305607F916F915F914F913F912F910F900FBEAB
S11305700F901F9018951F920F920FB60F9211248F
S11305802F933F934F935F936F937F938F939F9397
S1130590AF93BF93EF93FF93E0916E00F0916F00E0
S11305A0309709F00995FF91EF91BF91AF919F9119
S11305B08F917F916F915F914F913F912F910F9008
S11305C00FBE0F901F9018951F920F920FB60F92A7
S11305D011242F933F934F935F936F937F938F9344
S11305E09F93AF93BF93EF93FF93E0E0F0E00995FF
S11305F0FF91EF91BF91AF919F918F917F916F91F7
S11306005F914F913F912F910F900FBE0F901F90CC
S11306101895813041F028F0823039F0833039F078
S113062008956ABB089567BB089564BB089561BBD0
S113063008958130A9F028F0823009F1833071F1F6
S113064008952BB381E090E001C0880F6A95EAF722
S1130650413011F4822B02C0809582238BBB089514
S113066028B381E090E001C0880F6A95EAF7413031
S113067011F4822B02C08095822388BB089525B390
S113068081E090E001C0880F6A95EAF7413011F4E7
S1130690822B02C08095822385BB089522B381E01A
S11306A090E001C0880F6A95EAF7413011F4822B7B
S11306B002C08095822382BB08950C9419031F9273
S11306C00F920FB60F9211242F933F934F935F9382
S11306D06F937F938F939F93AF93BF93EF93FF9306
S11306E0E0918000F0918100309709F00995FF9125
S11306F0EF91BF91AF919F918F917F916F915F9196
S11307004F913F912F910F900FBE0F901F9018950E
S11307101F920F920FB60F9211242F933F934F9372
S11307205F936F937F938F939F93AF93BF93EF9355
S1130730FF93E0917E00F0917F00309709F00995D6
S1130740FF91EF91BF91AF919F918F917F916F91A5
S11307505F914F913F912F910F900FBE0F901F907B
S113076018951F920F920FB60F9211242F933F9357
S11307704F935F936F937F938F939F93AF93BF93A5
S1130780EF93FF93E0917600F0917700309709F0B2
S11307900995FF91EF91BF91AF919F918F917F91B7
S11307A06F915F914F913F912F910F900FBE0F90DA
S11307B01F9018951F920F920FB60F9211242F932A
S11307C03F934F935F936F937F938F939F93AF93D5
S11307D0BF93EF93FF93E0917A00F0917B00309701
S11307E009F00995FF91EF91BF91AF919F918F917E
S11307F07F916F915F914F913F912F910F900FBE19
S11308000F901F9018951F920F920FB60F921124FC
S11308102F933F934F935F936F937F938F939F9304
S1130820AF93BF93EF93FF93E0917800F091790039
S1130830309709F00995FF91EF91BF91AF919F9186
S11308408F917F916F915F914F913F912F910F9075
S11308500FBE0F901F9018951F920F920FB60F9214
S113086011242F933F934F935F936F937F938F93B1
S11308709F93AF93BF93EF93FF93E0917C00F0912C
S11308807D00309709F00995FF91EF91BF91AF91E9
S11308909F918F917F916F915F914F913F912F9194
S11308A00F900FBE0F901F9018951F920F920FB6C6
S11308B00F9211242F933F934F935F936F937F93E2
S11308C08F939F93AF93BF93EF93FF93E091740043
S11308D0F0917500309709F00995FF91EF91BF9160
S11308E0AF919F918F917F916F915F914F913F91C4
S11308F02F910F900FBE0F901F9018951F920F927B
S11309000FB60F9211242F933F934F935F936F93DE
S11309107F938F939F93AF93BF93EF93FF93E09154
S11309207200F0917300309709F00995FF91EF91EF
S1130930BF91AF919F918F917F916F915F914F91F3
S11309403F912F910F900FBE0F901F901895AA1BE7
S1130950BB1B51E107C0AA1FBB1FA617B70710F0A6
S1130960A61BB70B881F991F5A95A9F780959095D8
S1130970BC01CD010895A29FB001B39FC001A39F04
S1130980700D811D1124911DB29F700D811D1124C4
S10B0990911D0895F894FFCFB6
S10B099854656D70203D200040
S9030000FC
