S0140000427265616B696E506F696E742E737265634A
S11300000C9432000C9463000C948C000C94B50096
S11300100C9478020C944F020C94AB010C94D40110
S11300200C94FD010C9426020C9482010C94590149
S11300300C944F000C944F000C944F000C944F0000
S11300400C944F000C944F000C944F000C944F00F0
S11300500C944F001201F700F900FB0000010201AB
S11300600701090111241FBECFE5D8E0DEBFCDBFD3
S113007010E0A0E6B0E0EAE7F5E002C005900D92DA
S1130080A036B107D9F720E0A0E6B0E001C01D9288
S1130090A437B207E1F70E9451000C94BB020C9400
S11300A000006FEF81E00E94DA000E94610089E1A4
S11300B090E00E944F0142E062E083E00E94EA0087
S11300C0FFCF789408951F920F920FB60F921124C8
S11300D02F933F934F935F936F937F938F939F934C
S11300E0AF93BF93EF93FF93E0916200F0916300AD
S11300F0309709F00995FF91EF91BF91AF919F91CE
S11301008F917F916F915F914F913F912F910F90BC
S11301100FBE0F901F9018951F920F920FB60F925B
S113012011242F933F934F935F936F937F938F93F8
S11301309F93AF93BF93EF93FF93E0916000F0918F
S11301406100309709F00995FF91EF91BF91AF914C
S11301509F918F917F916F915F914F913F912F91DB
S11301600F900FBE0F901F9018951F920F920FB60D
S11301700F9211242F933F934F935F936F937F9329
S11301808F939F93AF93BF93EF93FF93E0E0F0E0DF
S11301900995FF91EF91BF91AF919F918F917F91BD
S11301A06F915F914F913F912F910F900FBE0F90E0
S11301B01F901895813041F028F0823039F0833057
S11301C039F008956ABB089567BB089564BB089528
S11301D061BB08950F931F93062F10E0083011059B
S11301E000F5F801E65DFF4F93B70C94B5029160FA
S11301F01AC09E7F01C0916093BF93B7926016C0EE
S11302009E7F01C0916093BF93B79D7F06C09E7F80
S113021001C0916093BF93B7926093BF93B794600A
S113022008C093B79E7F93BF93B79D7F93BF93B747
S11302309B7F93BF413059F038F0423071F0433026
S113024091F493B790610BC093B79F7E02C093B7AC
S1130250906193BF93B79F7D05C093B79F7E93BF73
S113026093B7906293BF813041F080F0823041F0C7
S1130270833061F483B7806405C083B7806408C0A9
S113028083B78F7B83BF83B7886005C083B78F7BB9
S113029083BF83B7877F83BF1F910F91089520E0A9
S11302A0982F822F64E670E00E94A10261506CBF17
S11302B008951F920F920FB60F9211242F933F931C
S11302C04F935F936F937F938F939F93AF93BF935A
S11302D0EF93FF93E0917200F0917300309709F06F
S11302E00995FF91EF91BF91AF919F918F917F916C
S11302F06F915F914F913F912F910F900FBE0F908F
S11303001F9018951F920F920FB60F9211242F93DE
S11303103F934F935F936F937F938F939F93AF9389
S1130320BF93EF93FF93E0917000F09171003097C9
S113033009F00995FF91EF91BF91AF919F918F9132
S11303407F916F915F914F913F912F910F900FBECD
S11303500F901F9018951F920F920FB60F921124B1
S11303602F933F934F935F936F937F938F939F93B9
S1130370AF93BF93EF93FF93E0916800F09169000E
S1130380309709F00995FF91EF91BF91AF919F913B
S11303908F917F916F915F914F913F912F910F902A
S11303A00FBE0F901F9018951F920F920FB60F92C9
S11303B011242F933F934F935F936F937F938F9366
S11303C09F93AF93BF93EF93FF93E0916C00F091F1
S11303D06D00309709F00995FF91EF91BF91AF91AE
S11303E09F918F917F916F915F914F913F912F9149
S11303F00F900FBE0F901F9018951F920F920FB67B
S11304000F9211242F933F934F935F936F937F9396
S11304108F939F93AF93BF93EF93FF93E0916A0001
S1130420F0916B00309709F00995FF91EF91BF911E
S1130430AF919F918F917F916F915F914F913F9178
S11304402F910F900FBE0F901F9018951F920F922F
S11304500FB60F9211242F933F934F935F936F9393
S11304607F938F939F93AF93BF93EF93FF93E09109
S11304706E00F0916F00309709F00995FF91EF91AC
S1130480BF91AF919F918F917F916F915F914F91A8
S11304903F912F910F900FBE0F901F9018951F92B0
S11304A00F920FB60F9211242F933F934F935F93A4
S11304B06F937F938F939F93AF93BF93EF93FF9328
S11304C0E0916600F0916700309709F00995FF917B
S11304D0EF91BF91AF919F918F917F916F915F91B8
S11304E04F913F912F910F900FBE0F901F90189531
S11304F01F920F920FB60F9211242F933F934F9395
S11305005F936F937F938F939F93AF93BF93EF9377
S1130510FF93E0916400F0916500309709F009952C
S1130520FF91EF91BF91AF919F918F917F916F91C7
S11305305F914F913F912F910F900FBE0F901F909D
S11305401895AA1BBB1B51E107C0AA1FBB1FA61706
S1130550B70710F0A61BB70B881F991F5A95A9F768
S113056080959095BC01CD010895EE0FFF1F059075
S10D0570F491E02D0994F894FFCFF4
S9030000FC
