:100000000C9432000C94FE020C9427030C945003C1
:100010000C9425060C94FC050C9458050C94810551
:100020000C94AA050C94D3050C9496040C946D04BE
:100030000C944F000C944F000C944F000C944F0004
:100040000C944F000C944F000C944F000C944F00F4
:100050000C944F000304E803EA03EC03F103F303F9
:10006000F803FA0311241FBECFE5D8E0DEBFCDBFF1
:1000700010E0A0E6B0E0E0EFFCE002C005900D92D9
:10008000AC36B107D9F720E0ACE6B0E001C01D9274
:10009000A838B207E1F70E94C3020C9476060C94CC
:1000A0000000CF93C82F40E064E080E00E94C903C5
:1000B00040E065E080E00E94C903C4FB442740F9AA
:1000C00060E080E00E94C903C5FB442740F961E07D
:1000D00080E00E94C903C6FB442740F962E080E04B
:1000E0000E94C9034C2F441F4427441F63E080E053
:1000F0000E94C90341E066E080E00E94C9038FECE2
:1001000097E00197F1F700C0000040E066E080E072
:100110000E94C9038FEC97E00197F1F700C000003F
:100120004C2F417060E080E00E94C903C1FB44276E
:1001300040F961E080E00E94C903C2FB442740F916
:1001400062E080E00E94C903C3FB442740F963E0FA
:1001500080E00E94C90341E066E080E00E94C9039C
:100160008FEC97E00197F1F700C0000040E066E0F7
:1001700080E00E94C9038FEC97E00197F1F700C07F
:100180000000CF910895CF93C82F41E064E080E054
:100190000E94C90340E065E080E00E94C903C4FBFF
:1001A000442740F960E080E00E94C903C5FB442772
:1001B00040F961E080E00E94C903C6FB442740F992
:1001C00062E080E00E94C9034C2F441F4427441F73
:1001D00063E080E00E94C90341E066E080E00E94A5
:1001E000C9038FEC97E00197F1F700C0000040E0F1
:1001F00066E080E00E94C9038FEC97E00197F1F779
:1002000000C000004C2F417060E080E00E94C903F4
:10021000C1FB442740F961E080E00E94C903C2FBB2
:10022000442740F962E080E00E94C903C3FB4427F1
:1002300040F963E080E00E94C90341E066E080E0AD
:100240000E94C9038FEC97E00197F1F700C000000E
:1002500040E066E080E00E94C9038FEC97E00197E0
:10026000F1F700C00000CF9108952FE788E391E0F7
:10027000215080409040E1F700C0000082E00E94E1
:1002800051008FEC97E00197F1F700C0000088E281
:100290000E9451008FEC97E00197F1F700C0000039
:1002A0008CE00E9451008FEC97E00197F1F700C0BD
:1002B000000086E00E9451008FE99FE00197F1F76E
:1002C00000C0000083E80E9451008FEC97E0019786
:1002D000F1F700C000000895811102C080E801C05C
:1002E00080EC860F0C945100CF93C82F862F642F7B
:1002F0000E946C018C2FCF910C94C300CF92DF929F
:10030000FF920F931F93CF93DF938C01F62EC42F90
:10031000642F8F2D0E946C01D0E080E4F89EC00D08
:10032000D11D1124F12C8F2D90E06801C80ED91E2B
:10033000F6012081222369F08C0F9D1F409719F44C
:1003400080EC0E945100F60180810E94C300F3946A
:10035000EACFDF91CF911F910F91FF90DF90CF9067
:1003600008958F929F92AF92BF92CF92DF92EF92B9
:10037000FF920F931F93CF93DF93CDB7DEB7A09774
:100380000FB6F894DEBF0FBECDBF9E012F5F3F4F6B
:10039000790120E2F70111922A95E9F761157105BB
:1003A00081059105A9F480E3A0960FB6F894DEBF0D
:1003B0000FBECDBFDF91CF911F910F91FF90EF90B6
:1003C000DF90CF90BF90AF909F908F900C94C30020
:1003D000670100E010E02AE0822E912CA12CB12CC4
:1003E000A50194010E944E06605D7F4FF601619366
:1003F00071936F01B901CA0198012F5F3F4F6115D9
:1004000071058105910511F08901EACF000F111FD7
:100410000E5F1F4F0E0D1F1D0E151F0539F00250E8
:100420001109F80180810E94C300F6CFA0960FB693
:10043000F894DEBF0FBECDBFDF91CF911F910F911A
:10044000FF90EF90DF90CF90BF90AF909F908F90F4
:1004500008958091700090917100019690937100C1
:10046000809370000895CF92DF92EF92FF920F93E6
:100470001F930E940505AC0160E070E040936C00A2
:1004800050936D0060936E0070936F0080917200C6
:100490009091730001969093730080937200809105
:1004A000720090917300803A9F4009F065C080917E
:1004B000700090917100A0E0B0E0DC0199278827DE
:1004C0008C019D01040F151F261F371FC901B8019C
:1004D00000936C0010936D0020936E0030936F00BA
:1004E000683E13E071078105910560F128EE33E065
:1004F00040E050E00E944E066B017C0120936C00AE
:1005000030936D0040936E0050936F004DE061E0BA
:1005100080E690E00E947E0160E081E00E946C0134
:1005200060916C0070916D0080916E0090916F00F1
:100530000E94B10143E061E08EE20E947401C701B4
:10054000B60112C04DE061E081E690E00E947E01BC
:1005500060E081E00E946C0160916C0070916D0020
:1005600080916E0090916F001F910F91FF90EF901E
:10057000DF90CF900C94B1011F910F91FF90EF90FD
:10058000DF90CF9008950E94FC026FEF80E00E9400
:1005900075036FEF82E00E94750360E081E00E94C6
:1005A00075036FEF81E00E94CB030E94350140E0AC
:1005B00060E084E690E00E947E0163E372E081E007
:1005C0000E945E0460E081E00E94420489EF0E9484
:1005D000400440E062E082E00E94DB0369E272E0F6
:1005E00083E00E943C0560E083E00E94080567E02C
:1005F00080E00E94BF04FFCF789408951F920F926D
:100600000FB60F9211242F933F934F935F936F93E5
:100610007F938F939F93AF93BF93EF93FF93E0915B
:100620007600F0917700309709F00995FF91EF91EE
:10063000BF91AF919F918F917F916F915F914F91FA
:100640003F912F910F900FBE0F901F9018951F9202
:100650000F920FB60F9211242F933F934F935F93F6
:100660006F937F938F939F93AF93BF93EF93FF937A
:10067000E0917400F0917500309709F00995FF91B1
:10068000EF91BF91AF919F918F917F916F915F910A
:100690004F913F912F910F900FBE0F901F90189583
:1006A0001F920F920FB60F9211242F933F934F93E7
:1006B0005F936F937F938F939F93AF93BF93EF93CA
:1006C000FF93E0E0F0E00995FF91EF91BF91AF91CA
:1006D0009F918F917F916F915F914F913F912F915A
:1006E0000F900FBE0F901F901895813041F028F0A9
:1006F000823039F0833039F008956ABB089567BBC2
:10070000089564BB089561BB08958130A9F028F075
:10071000823009F1833071F108952BB381E090E0CC
:1007200001C0880F6A95EAF7413011F4822B02C0AC
:10073000809582238BBB089528B381E090E001C0AF
:10074000880F6A95EAF7413011F4822B02C0809538
:10075000822388BB089525B381E090E001C0880F13
:100760006A95EAF7413011F4822B02C0809582230A
:1007700085BB089522B381E090E001C0880F6A959F
:10078000EAF7413011F4822B02C08095822382BBAC
:1007900008950C948503813041F028F0823039F0BF
:1007A000833039F008956BBB089568BB089565BB2D
:1007B000089562BB08950F931F93062F10E0083031
:1007C000110500F5F801E65DFF4F93B70C94700634
:1007D00091601AC09E7F01C0916093BF93B79260F1
:1007E00016C09E7F01C0916093BF93B79D7F06C0E6
:1007F0009E7F01C0916093BF93B7926093BF93B700
:10080000946008C093B79E7F93BF93B79D7F93BFBB
:1008100093B79B7F93BF413059F038F0423071F06D
:10082000433091F493B790610BC093B79F7E02C0A1
:1008300093B7906193BF93B79F7D05C093B79F7E99
:1008400093BF93B7906293BF813041F080F08230C4
:1008500041F0833061F483B7806405C083B780645E
:1008600008C083B78F7B83BF83B7886005C083B719
:100870008F7B83BF83B7877F83BF1F910F910895BD
:100880008CBF0895882319F0813061F008956623A4
:1008900019F0613021F0089589B781600DC089B7E2
:1008A0008E7F0AC0662319F0613021F0089589B760
:1008B000826002C089B78D7F89BF0895882319F0AF
:1008C000813031F008957093870060938600089519
:1008D000709385006093840008951F920F920FB665
:1008E0000F9211242F933F934F935F936F937F93B6
:1008F0008F939F93AF93BF93EF93FF93E091860005
:10090000F0918700309709F00995FF91EF91BF9121
:10091000AF919F918F917F916F915F914F913F9197
:100920002F910F900FBE0F901F9018951F920F924E
:100930000FB60F9211242F933F934F935F936F93B2
:100940007F938F939F93AF93BF93EF93FF93E09128
:100950008400F0918500309709F00995FF91EF919F
:10096000BF91AF919F918F917F916F915F914F91C7
:100970003F912F910F900FBE0F901F9018959EB52D
:10098000987F9EBD9EB56770692B6EBD8230D9F091
:1009900028F4882349F0813081F008958430E1F013
:1009A000C0F0853029F108958FB58E7F8FBD8FB54A
:1009B0008D7F8FBD8EB5877F23C08FB58E7F8FBD16
:1009C0008FB58D7F0EC08FB58E7F8FBD8FB58D7F1C
:1009D00014C08FB58E7F02C08FB581608FBD8FB57B
:1009E00082608FBD8EB588608EBD8EB580610BC074
:1009F0008FB581608FBD8FB582608FBD8EB58860E9
:100A00008EBD8EB58F7E8EBD08958CB59DB5089533
:100A10008130D9F078F0823019F1833061F56623A6
:100A200019F0613021F0089589B7846023C089B737
:100A30008B7F20C0662319F0613021F0089589B7BB
:100A4000806218C089B78F7D15C0662319F06130A8
:100A500021F0089589B780610DC089B78F7E0AC0E3
:100A6000662319F0613021F0089589B7886002C0CB
:100A700089B7877F89BF0895813059F028F0823087
:100A800069F0833081F0089570937D0060937C005D
:100A900008957093810060938000089570937F00A3
:100AA00060937E00089570938300609382000895A0
:100AB0001F920F920FB60F9211242F933F934F93D3
:100AC0005F936F937F938F939F93AF93BF93EF93B6
:100AD000FF93E0917C00F0917D00309709F009953B
:100AE000FF91EF91BF91AF919F918F917F916F9106
:100AF0005F914F913F912F910F900FBE0F901F90DC
:100B000018951F920F920FB60F9211242F933F93B7
:100B10004F935F936F937F938F939F93AF93BF9305
:100B2000EF93FF93E0918000F0918100309709F0FE
:100B30000995FF91EF91BF91AF919F918F917F9117
:100B40006F915F914F913F912F910F900FBE0F903A
:100B50001F9018951F920F920FB60F9211242F938A
:100B60003F934F935F936F937F938F939F93AF9335
:100B7000BF93EF93FF93E0917E00F0917F00309759
:100B800009F00995FF91EF91BF91AF919F918F91DE
:100B90007F916F915F914F913F912F910F900FBE79
:100BA0000F901F9018951F920F920FB60F9211245D
:100BB0002F933F934F935F936F937F938F939F9365
:100BC000AF93BF93EF93FF93E0918200F091830086
:100BD000309709F00995FF91EF91BF91AF919F91E7
:100BE0008F917F916F915F914F913F912F910F90D6
:100BF0000FBE0F901F9018951F920F920FB60F9275
:100C000011242F933F934F935F936F937F938F9311
:100C10009F93AF93BF93EF93FF93E0917A00F0918E
:100C20007B00309709F00995FF91EF91BF91AF914B
:100C30009F918F917F916F915F914F913F912F91F4
:100C40000F900FBE0F901F9018951F920F920FB626
:100C50000F9211242F933F934F935F936F937F9342
:100C60008F939F93AF93BF93EF93FF93E09178009F
:100C7000F0917900309709F00995FF91EF91BF91BC
:100C8000AF919F918F917F916F915F914F913F9124
:100C90002F910F900FBE0F901F901895A1E21A2E62
:100CA000AA1BBB1BFD010DC0AA1FBB1FEE1FFF1F10
:100CB000A217B307E407F50720F0A21BB30BE40B60
:100CC000F50B661F771F881F991F1A9469F76095A7
:100CD0007095809590959B01AC01BD01CF01089561
:100CE000EE0FFF1F0590F491E02D0994F894FFCFCB
:0C0CF0004B487A0046726571203D2000E0
:00000001FF
