S0140000427265616B696E506F696E742E737265634A
S11300000C942A000C9458030C9481030C94AA03B6
S11300100C9447000C9447000C9447000C94470040
S11300200C9447000C9447000C9447000C94470030
S11300300C9447000C9447000C9447000C94470020
S11300400C9447000C9447000C9447000C94470010
S11300500C94470011241FBECFE5D8E0DEBFCDBF0E
S113006010E0A0E6B0E0EEEBF8E002C005900D92DF
S1130070A837B107D9F720E0A8E7B0E001C01D9286
S1130080AE37B207E1F70E9415020C945D040C949C
S11300900000CF93C82F40E064E080E00E94230476
S11300A040E065E080E00E942304C4FB442740F95B
S11300B060E080E00E942304C5FB442740F961E02E
S11300C080E00E942304C6FB442740F962E080E0FC
S11300D00E9423044C2F441F4427441F63E080E004
S11300E00E94230441E066E080E00E9423048FEC38
S11300F097E00197F1F700C0000040E066E080E07F
S11301000E9423048FEC97E00197F1F700C00000F0
S11301104C2F417060E080E00E942304C1FB44271F
S113012040F961E080E00E942304C2FB442740F9C7
S113013062E080E00E942304C3FB442740F963E0AB
S113014080E00E94230441E066E080E00E942304F2
S11301508FEC97E00197F1F700C0000040E066E003
S113016080E00E9423048FEC97E00197F1F700C030
S11301700000CF910895CF93C82F41E064E080E060
S11301800E94230440E065E080E00E942304C4FB55
S1130190442740F960E080E00E942304C5FB442723
S11301A040F961E080E00E942304C6FB442740F943
S11301B062E080E00E9423044C2F441F4427441F24
S11301C063E080E00E94230441E066E080E00E9456
S11301D023048FEC97E00197F1F700C0000040E0A2
S11301E066E080E00E9423048FEC97E00197F1F72A
S11301F000C000004C2F417060E080E00E942304A6
S1130200C1FB442740F961E080E00E942304C2FB63
S1130210442740F962E080E00E942304C3FB4427A2
S113022040F963E080E00E94230441E066E080E05E
S11302300E9423048FEC97E00197F1F700C00000BF
S113024040E066E080E00E9423048FEC97E0019791
S1130250F1F700C00000CF9108952FE788E391E003
S1130260215080409040E1F700C0000082E00E94ED
S113027049008FEC97E00197F1F700C0000088E295
S11302800E9449008FEC97E00197F1F700C000004D
S11302908CE00E9449008FEC97E00197F1F700C0D1
S11302A0000086E00E9449008FE99FE00197F1F782
S11302B000C0000083E80E9449008FEC97E001979A
S11302C0F1F700C000000895811102C080E801C068
S11302D080EC860F0C944900CF92DF92FF920F932B
S11302E01F93CF93DF938C01F62EC42F642F8F2D91
S11302F00E946401D0E080E4F89EC00DD11D112459
S1130300F12C8F2D90E06801C80ED91EF6012081D2
S1130310222369F08C0F9D1F409719F480EC0E94F2
S11303204900F60180810E94BB00F394EACFDF917B
S1130330CF911F910F91FF90DF90CF900895CF92AE
S1130340DF92EF92FF920F931F93CF93DF93CDB77A
S1130350DEB7A0970FB6F894DEBF0FBECDBF6C0119
S1130360CE0101967C0180E2F70111928A95E9F7AA
S1130370C114D10489F480E3A0960FB6F894DEBFCB
S11303800FBECDBFDF91CF911F910F91FF90EF90E2
S1130390DF90CF900C94BB00D7FC06C0F70100E0BF
S11303A010E02AE030E007C0D194C194D1088DE276
S11303B00E94BB00F3CFC601B9010E943504C09668
S11303C0819391936B01C8010196672B11F08C0105
S11303D0F2CF000F111F0E5F1F4F0E0D1F1D0E15C4
S11303E01F0539F002501109F80180810E94BB00F9
S11303F0F6CFA0960FB6F894DEBF0FBECDBFDF9147
S1130400CF911F910F91FF90EF90DF90CF900895BF
S1130410809178008F5F80937800089580917900AF
S11304208F5F80937900089508950E94470360E0E8
S113043081E00E94CF0360E083E00E94CF036FEF6E
S113044080E00E94CF036FEF80E00E94CF036FEF44
S113045081E00E9425046FEF83E00E94250462E09E
S113046080E00E94FA0262E081E00E94FA0262E007
S113047082E00E94FA020E942D0140E060E080E6E2
S113048090E00E946C0168E072E080E00E94490301
S11304906EE072E081E00E94490364E172E082E070
S11304A00E94490342E061E081E790E00E946C0110
S11304B045E061E081E790E00E946C014DE061E07D
S11304C083E790E00E946C0105EE17E0D1E0C1E003
S11304D0809178008A3038F44EE061E085E790E05E
S11304E00E946C0104C06EE081E00E94640180916E
S11304F0780090E00E949F01809179008A3038F45E
S11305004BE061E085E790E00E946C0104C06BE081
S113051081E00E9464018091790090E00E949F0133
S1130520EC2EF12CCA3038F440E061E085E790E02D
S11305300E946C0104C060E081E00E946401C70174
S11305400E949F01ED2EF12CDA3038F443E061E093
S113055085E790E00E946C0104C063E081E00E94A2
S11305606401C7010E949F0166E081E00E9464016A
S1130570C8010E949F01809178008C3339F4109255
S11305807800809179008F5F809379008091790061
S1130590883111F410927900CF3111F4DF5FC1E09A
S11305A0DD3019F40F5F1F4FD1E0809178008B3359
S11305B091F480917900873171F42FEF89E698E105
S11305C0215080409040E1F700C000001092780074
S11305D010927900CF5F2FEF89E698E12150804097
S11305E09040E1F700C00000809178008F5F809315
S11305F078006ECF813019F118F08230E1F108955E
S1130600613071F050F0623089F06330A9F484B73E
S1130610816084BF84B781600EC084B78E7F02C0BE
S113062084B7816084BF84B78D7F05C084B78E7F13
S113063084BF84B7826084BF8BB7806426C0613076
S113064059F038F0623071F0633091F484B784600B
S11306500BC084B78B7F02C084B7846084BF84B727
S1130660877F05C084B78B7F84BF84B7886084BFCD
S11306708BB780680AC0623019F484B78F7B02C0DC
S113068084B7806484BF8BB780628BBF08957894ED
S11306900895882319F0813031F0089570937D0016
S11306A060937C00089570937B0060937A000895B2
S11306B01F920F920FB60F9211242F933F934F93D3
S11306C05F936F937F938F939F93AF93BF93EF93B6
S11306D0FF93E0917C00F0917D00309709F009953B
S11306E0FF91EF91BF91AF919F918F917F916F9106
S11306F05F914F913F912F910F900FBE0F901F90DC
S113070018951F920F920FB60F9211242F933F93B7
S11307104F935F936F937F938F939F93AF93BF9305
S1130720EF93FF93E0917A00F0917B00309709F00A
S11307300995FF91EF91BF91AF919F918F917F9117
S11307406F915F914F913F912F910F900FBE0F903A
S11307501F9018951F920F920FB60F9211242F938A
S11307603F934F935F936F937F938F939F93AF9335
S1130770BF93EF93FF93E0E0F0E00995FF91EF91D1
S1130780BF91AF919F918F917F916F915F914F91A5
S11307903F912F910F900FBE0F901F9018958130AD
S11307A041F028F0823039F0833039F008956ABB83
S11307B0089567BB089564BB089561BB08958130B3
S11307C0A9F028F0823009F1833071F108952BB338
S11307D081E090E001C0880F6A95EAF7413011F496
S11307E0822B02C0809582238BBB089528B381E0BD
S11307F090E001C0880F6A95EAF7413011F4822B2A
S113080002C08095822388BB089525B381E090E0DF
S113081001C0880F6A95EAF7413011F4822B02C0B7
S11308208095822385BB089522B381E090E001C0C6
S1130830880F6A95EAF7413011F4822B02C0809543
S1130840822382BB08950C94DF03813041F028F0A9
S1130850823039F0833039F008956BBB089568BB5A
S1130860089565BB089562BB089597FB072E16F49F
S1130870009407D077FD09D00E94490407FC05D0F5
S11308803EF4909581959F4F0895709561957F4FA3
S11308900895AA1BBB1B51E107C0AA1FBB1FA617C3
S11308A0B70710F0A61BB70B881F991F5A95A9F715
S11108B080959095BC01CD010895F894FFCF7A
S11308BE64642F6D6D2F796561722068683A6D6D71
S10B08CE002F003A0030000085
S9030000FC
