:100000000C942A000C943F000C943F000C943F0089
:100010000C943F000C943F000C943F000C943F0064
:100020000C943F000C943F000C943F000C943F0054
:100030000C943F000C943F000C943F000C943F0044
:100040000C943F000C943F000C943F000C943F0034
:100050000C943F0011241FBECFE5D8E0DEBFCDBF1A
:1000600010E0A0E6B0E0E6E8F5E002C005900D92F1
:10007000A838B107D9F70E94FB010C94C1020C9477
:100080000000DF92EF92FF920F931F93CF93DF93C5
:1000900041E060E081E00E94550241E061E081E0E2
:1000A0000E94550241E062E081E00E94550241E079
:1000B00063E081E00E94550290E6E92E90E0F92E7F
:1000C000DEE2C0E040E06C2F81E00E94550200E0DB
:1000D00010E084E0D82ED00E6D2D81E00E94A902A0
:1000E00081110AC0F701E00FF11FD0816D2D81E071
:1000F0000E94A9028823D1F30F5F1F4F043011051E
:1001000041F741E06C2F81E00E945502CF5F84E00F
:10011000E80EF11CC430B1F68D2FDF91CF911F9105
:100120000F91FF90EF90DF900895CF93C82F40E09C
:1001300064E080E00E94550240E065E080E00E94BB
:100140005502C4FB442740F960E080E00E9455025C
:10015000C5FB442740F961E080E00E945502C6FBE0
:10016000442740F962E080E00E9455024C2F441F72
:100170004427441F63E080E00E94550241E066E0AE
:1001800080E00E9455028FEC97E00197F1F700C0E4
:10019000000040E066E080E00E9455028FEC97E0AE
:1001A0000197F1F700C000004C2F417060E080E043
:1001B0000E945502C1FB442740F961E080E00E94A3
:1001C0005502C2FB442740F962E080E00E945502DC
:1001D000C3FB442740F963E080E00E94550241E000
:1001E00066E080E00E9455028FEC97E00197F1F7FE
:1001F00000C0000040E066E080E00E9455028FEC05
:1002000097E00197F1F700C00000CF910895CF93D8
:10021000C82F41E064E080E00E94550240E065E0C4
:1002200080E00E945502C4FB442740F960E080E072
:100230000E945502C5FB442740F961E080E00E941E
:100240005502C6FB442740F962E080E00E94550257
:100250004C2F441F4427441F63E080E00E94550256
:1002600041E066E080E00E9455028FEC97E0019744
:10027000F1F700C0000040E066E080E00E94550217
:100280008FEC97E00197F1F700C000004C2F417010
:1002900060E080E00E945502C1FB442740F961E024
:1002A00080E00E945502C2FB442740F962E080E0F2
:1002B0000E945502C3FB442740F963E080E00E949E
:1002C000550241E066E080E00E9455028FEC97E025
:1002D0000197F1F700C0000040E066E080E00E9476
:1002E00055028FEC97E00197F1F700C00000CF9125
:1002F00008952FE788E391E0215080409040E1F796
:1003000000C0000082E00E9495008FEC97E001970A
:10031000F1F700C0000088E20E9495008FEC97E0A2
:100320000197F1F700C000008CE00E9495008FEC6F
:1003300097E00197F1F700C0000086E00E94950069
:100340008FE99FE00197F1F700C0000083E80E9469
:1003500095008FEC97E00197F1F700C00000089539
:10036000811102C080E803C0813021F480EC860F47
:100370000C9495000895CF93C82F862F642F0E9468
:10038000B0018C2FCF910C940701CF92DF92FF9296
:100390000F931F93CF93DF938C01F62EC42F642FFE
:1003A0008F2D0E94B001D0E080E4F89EC00DD11DD9
:1003B0001124F12C8F2D90E06801C80ED91EF60192
:1003C0002081222369F08C0F9D1F409719F480EC47
:1003D0000E949500F60180810E940701F394EACF04
:1003E000DF91CF911F910F91FF90DF90CF900895F3
:1003F00081E00C9495006FEF80E00E9445026FE071
:1004000081E00E9445026FEF81E00E9499020E9404
:10041000790140E060E080E790E00E94C50160E083
:1004200081E00E94B00100E010E0C0E0DAE00E944C
:1004300041008E32E1F390ED980F9A3080F4D09F16
:100440009001D19F300D11248901080F111D005317
:1004500011094C2F61E00E94BB01CF5FE8CF8D33C3
:1004600031F703328EE3180739F40E94F80140E0B7
:1004700060E089E790E006C00E94F80140E060E09B
:1004800081E890E00E94C501D2CF813041F028F090
:10049000823039F0833039F008956ABB089567BB24
:1004A000089564BB089561BB08958130A9F028F0D8
:1004B000823009F1833071F108952BB381E090E02F
:1004C00001C0880F6A95EAF7413011F4822B02C00F
:1004D000809582238BBB089528B381E090E001C012
:1004E000880F6A95EAF7413011F4822B02C080959B
:1004F000822388BB089525B381E090E001C0880F76
:100500006A95EAF7413011F4822B02C0809582236C
:1005100085BB089522B381E090E001C0880F6A9501
:10052000EAF7413011F4822B02C08095822382BB0E
:100530000895813041F028F0823039F0833039F06D
:1005400008956BBB089568BB089565BB089562BBB1
:100550000895813049F030F0823041F0833079F4F1
:1005600080B305C089B303C086B301C083B390E0F4
:1005700002C0959587956A95E2F78170089580E0AD
:060580000895F894FFCF7E
:100586003738392F3435362A3132332D63303D2B07
:1005960070617373776F72640057656C636F6D6516
:0805A6000057726F6E67000040
:00000001FF
