:100000000C942A000C943F000C943F000C943F0089
:100010000C943F000C943F000C943F000C943F0064
:100020000C943F000C943F000C943F000C943F0054
:100030000C943F000C943F000C943F000C943F0044
:100040000C943F000C943F000C943F000C943F0034
:100050000C943F0011241FBECFE5D8E0DEBFCDBF1A
:1000600010E0A0E6B0E0ECE9F1E002C005900D92EE
:10007000AA36B107D9F70E9479000C94CC000C94F1
:100080000000813041F028F0823039F0833039F0BF
:1000900008956ABB089567BB089564BB089561BB6A
:1000A0000895813041F028F0823039F0833039F002
:1000B00008956BBB089568BB089565BB089562BB46
:1000C0000895813049F030F0823041F0833079F486
:1000D00080B305C089B303C086B301C083B390E089
:1000E00002C0959587956A95E2F78170089580E042
:1000F00008956FEF82E00E9441006FE083E00E946C
:1001000041006FE083E00E945100C0E0DAE08C2FF4
:100110006D2F0E94C000292F30E0082F10E0C90188
:10012000805A9F4F7C01005A1F4F9098919AF70177
:10013000608182E00E94510089EF90E00197F1F721
:1001400000C000009198909AF801608182E00E94BE
:10015000510089EF90E00197F1F700C0000067E0DF
:1001600083E00E9461008111E0CFCF5FC43609F4C3
:10017000C0E067E083E00E9461008823D1F3C7CF2D
:10018000991B79E004C0991F961708F0961B881FE9
:0C0190007A95C9F780950895F894FFCF88
:0A019C003F065B4F666D7D077F6F25
:00000001FF
