:100000000C9432000C94A6000C94CF000C94F800D1
:100010000C940E030C94E5020C9441020C946A02B9
:100020000C9493020C94BC020C9418020C94EF01F3
:100030000C944F000C944F000C944F000C944F0004
:100040000C944F000C944F000C944F000C944F00F4
:100050000C944F0085016A016C016E0173017501FA
:100060007A017C0111241FBECFE5D8E0DEBFCDBFF1
:1000700010E0A0E6B0E0EEE7F6E002C005900D92D9
:10008000A036B107D9F720E0A0E6B0E001C01D928C
:10009000A637B207E1F70E945B000C943D030C9475
:1000A0000000809160009091610001969093610042
:1000B0008093600008950E94A4006FEF82E00E9488
:1000C0001D016FEF80E00E941D0161E570E080E09E
:1000D0000E94E00140E062E080E00E945D0160E09B
:1000E00080E00E94C40186E00E94C201C0E010E0EE
:1000F000D0E08091600090916100803A9F4071F45F
:1001000086E00E94C20160E082E00E942D01109210
:10011000610010926000DF5F1F5FCF5FD23029F473
:1001200061E082E00E942D01D0E0133029F462E00A
:1001300082E00E942D0110E0C430D9F663E082E035
:100140000E942D01C0E0D5CF789408951F920F92A0
:100150000FB60F9211242F933F934F935F936F939A
:100160007F938F939F93AF93BF93EF93FF93E09110
:100170006400F0916500309709F00995FF91EF91C7
:10018000BF91AF919F918F917F916F915F914F91AF
:100190003F912F910F900FBE0F901F9018951F92B7
:1001A0000F920FB60F9211242F933F934F935F93AB
:1001B0006F937F938F939F93AF93BF93EF93FF932F
:1001C000E0916200F0916300309709F00995FF918A
:1001D000EF91BF91AF919F918F917F916F915F91BF
:1001E0004F913F912F910F900FBE0F901F90189538
:1001F0001F920F920FB60F9211242F933F934F939C
:100200005F936F937F938F939F93AF93BF93EF937E
:10021000FF93E0E0F0E00995FF91EF91BF91AF917E
:100220009F918F917F916F915F914F913F912F910E
:100230000F900FBE0F901F901895813041F028F05D
:10024000823039F0833039F008956ABB089567BB76
:10025000089564BB089561BB0895813081F028F052
:100260008230B9F08330F9F008952BB381E090E04B
:1002700001C0880F6A95EAF782278BBB089528B3DF
:1002800081E090E001C0880F6A95EAF7822788BB79
:10029000089525B381E090E001C0880F6A95EAF7E0
:1002A000822785BB089522B381E090E001C0880FCA
:1002B0006A95EAF7822782BB08950F931F93062F52
:1002C00010E00830110500F5F801E65DFF4F93B727
:1002D0000C94370391601AC09E7F01C0916093BF58
:1002E00093B7926016C09E7F01C0916093BF93B791
:1002F0009D7F06C09E7F01C0916093BF93B79260BF
:1003000093BF93B7946008C093B79E7F93BF93B792
:100310009D7F93BF93B79B7F93BF413059F038F0D7
:10032000423071F0433091F493B790610BC093B7B2
:100330009F7E02C093B7906193BF93B79F7D05C026
:1003400093B79F7E93BF93B7906293BF813041F084
:1003500080F0823041F0833061F483B7806405C05F
:1003600083B7806408C083B78F7B83BF83B78860FF
:1003700005C083B78F7B83BF83B7877F83BF1F9100
:100380000F91089582BF0895882319F0813061F09C
:100390000895662319F0613021F0089589B78160CE
:1003A0000DC089B78E7F0AC0662319F0613021F035
:1003B000089589B7826002C089B78D7F89BF08958B
:1003C000882319F0813031F008957093750060939F
:1003D00074000895709373006093720008951F92E3
:1003E0000F920FB60F9211242F933F934F935F9369
:1003F0006F937F938F939F93AF93BF93EF93FF93ED
:10040000E0917400F0917500309709F00995FF9123
:10041000EF91BF91AF919F918F917F916F915F917C
:100420004F913F912F910F900FBE0F901F901895F5
:100430001F920F920FB60F9211242F933F934F9359
:100440005F936F937F938F939F93AF93BF93EF933C
:10045000FF93E0917200F0917300309709F00995D5
:10046000FF91EF91BF91AF919F918F917F916F918C
:100470005F914F913F912F910F900FBE0F901F9062
:1004800018951F920F920FB60F9211242F933F933E
:100490004F935F936F937F938F939F93AF93BF938C
:1004A000EF93FF93E0916A00F0916B00309709F0B1
:1004B0000995FF91EF91BF91AF919F918F917F919E
:1004C0006F915F914F913F912F910F900FBE0F90C1
:1004D0001F9018951F920F920FB60F9211242F9311
:1004E0003F934F935F936F937F938F939F93AF93BC
:1004F000BF93EF93FF93E0916E00F0916F00309700
:1005000009F00995FF91EF91BF91AF919F918F9164
:100510007F916F915F914F913F912F910F900FBEFF
:100520000F901F9018951F920F920FB60F921124E3
:100530002F933F934F935F936F937F938F939F93EB
:10054000AF93BF93EF93FF93E0916C00F0916D0038
:10055000309709F00995FF91EF91BF91AF919F916D
:100560008F917F916F915F914F913F912F910F905C
:100570000FBE0F901F9018951F920F920FB60F92FB
:1005800011242F933F934F935F936F937F938F9398
:100590009F93AF93BF93EF93FF93E0917000F0911F
:1005A0007100309709F00995FF91EF91BF91AF91DC
:1005B0009F918F917F916F915F914F913F912F917B
:1005C0000F900FBE0F901F9018951F920F920FB6AD
:1005D0000F9211242F933F934F935F936F937F93C9
:1005E0008F939F93AF93BF93EF93FF93E091680036
:1005F000F0916900309709F00995FF91EF91BF9153
:10060000AF919F918F917F916F915F914F913F91AA
:100610002F910F900FBE0F901F9018951F920F9261
:100620000FB60F9211242F933F934F935F936F93C5
:100630007F938F939F93AF93BF93EF93FF93E0913B
:100640006600F0916700309709F00995FF91EF91EE
:10065000BF91AF919F918F917F916F915F914F91DA
:100660003F912F910F900FBE0F901F901895EE0F96
:0E067000FF1F0590F491E02D0994F894FFCF40
:00000001FF
